{
  "_format": "hh3-artifact-1",
  "contractName": "ResearchProjectEscrow",
  "sourceName": "contracts/ResearchProjectEscrow.sol",
  "abi": [
    {
      "inputs": [
        {
          "internalType": "address",
          "name": "_researcher",
          "type": "address"
        }
      ],
      "stateMutability": "nonpayable",
      "type": "constructor"
    },
    {
      "inputs": [
        {
          "internalType": "string",
          "name": "_title",
          "type": "string"
        },
        {
          "internalType": "uint256",
          "name": "_amount",
          "type": "uint256"
        }
      ],
      "name": "addMilestone",
      "outputs": [],
      "stateMutability": "nonpayable",
      "type": "function"
    },
    {
      "inputs": [],
      "name": "donate",
      "outputs": [],
      "stateMutability": "payable",
      "type": "function"
    },
    {
      "inputs": [],
      "name": "getContractBalance",
      "outputs": [
        {
          "internalType": "uint256",
          "name": "",
          "type": "uint256"
        }
      ],
      "stateMutability": "view",
      "type": "function"
    },
    {
      "inputs": [],
      "name": "getMilestoneCount",
      "outputs": [
        {
          "internalType": "uint256",
          "name": "",
          "type": "uint256"
        }
      ],
      "stateMutability": "view",
      "type": "function"
    },
    {
      "inputs": [],
      "name": "getMilestones",
      "outputs": [
        {
          "components": [
            {
              "internalType": "string",
              "name": "title",
              "type": "string"
            },
            {
              "internalType": "uint256",
              "name": "amount",
              "type": "uint256"
            },
            {
              "internalType": "bool",
              "name": "released",
              "type": "bool"
            }
          ],
          "internalType": "struct ResearchProjectEscrow.Milestone[]",
          "name": "",
          "type": "tuple[]"
        }
      ],
      "stateMutability": "view",
      "type": "function"
    },
    {
      "inputs": [],
      "name": "owner",
      "outputs": [
        {
          "internalType": "address",
          "name": "",
          "type": "address"
        }
      ],
      "stateMutability": "view",
      "type": "function"
    },
    {
      "inputs": [
        {
          "internalType": "uint256",
          "name": "index",
          "type": "uint256"
        }
      ],
      "name": "releaseMilestone",
      "outputs": [],
      "stateMutability": "nonpayable",
      "type": "function"
    },
    {
      "inputs": [],
      "name": "researcher",
      "outputs": [
        {
          "internalType": "address",
          "name": "",
          "type": "address"
        }
      ],
      "stateMutability": "view",
      "type": "function"
    },
    {
      "inputs": [],
      "name": "totalDonated",
      "outputs": [
        {
          "internalType": "uint256",
          "name": "",
          "type": "uint256"
        }
      ],
      "stateMutability": "view",
      "type": "function"
    },
    {
      "stateMutability": "payable",
      "type": "receive"
    }
  ],
  "bytecode": "0x608060405234801561000f575f5ffd5b506040516115b03803806115b083398181016040528101906100319190610182565b5f73ffffffffffffffffffffffffffffffffffffffff168173ffffffffffffffffffffffffffffffffffffffff160361009f576040517f08c379a000000000000000000000000000000000000000000000000000000000815260040161009690610207565b60405180910390fd5b335f5f6101000a81548173ffffffffffffffffffffffffffffffffffffffff021916908373ffffffffffffffffffffffffffffffffffffffff1602179055508060015f6101000a81548173ffffffffffffffffffffffffffffffffffffffff021916908373ffffffffffffffffffffffffffffffffffffffff16021790555050610225565b5f5ffd5b5f73ffffffffffffffffffffffffffffffffffffffff82169050919050565b5f61015182610128565b9050919050565b61016181610147565b811461016b575f5ffd5b50565b5f8151905061017c81610158565b92915050565b5f6020828403121561019757610196610124565b5b5f6101a48482850161016e565b91505092915050565b5f82825260208201905092915050565b7f496e76616c6964207265736561726368657200000000000000000000000000005f82015250565b5f6101f16012836101ad565b91506101fc826101bd565b602082019050919050565b5f6020820190508181035f83015261021e816101e5565b9050919050565b61137e806102325f395ff3fe608060405260043610610088575f3560e01c80636f9fb98a116100585780636f9fb98a1461019257806384b62c28146101bc5780638da5cb5b146101e45780638f4cf2471461020e578063ed88c68e14610238576100e8565b8062b37044146100ec5780631dc0a6a514610116578063317debf514610140578063629e4ed014610168576100e8565b366100e8575f34116100cf576040517f08c379a00000000000000000000000000000000000000000000000000000000081526004016100c690610882565b60405180910390fd5b3460025f8282546100e091906108d6565b925050819055005b5f5ffd5b3480156100f7575f5ffd5b50610100610242565b60405161010d9190610918565b60405180910390f35b348015610121575f5ffd5b5061012a610248565b6040516101379190610970565b60405180910390f35b34801561014b575f5ffd5b50610166600480360381019061016191906109c4565b61026d565b005b348015610173575f5ffd5b5061017c6104eb565b6040516101899190610b90565b60405180910390f35b34801561019d575f5ffd5b506101a66105fa565b6040516101b39190610918565b60405180910390f35b3480156101c7575f5ffd5b506101e260048036038101906101dd9190610cdc565b610601565b005b3480156101ef575f5ffd5b506101f861079c565b6040516102059190610970565b60405180910390f35b348015610219575f5ffd5b506102226107c0565b60405161022f9190610918565b60405180910390f35b6102406107cc565b005b60025481565b60015f9054906101000a900473ffffffffffffffffffffffffffffffffffffffff1681565b5f5f9054906101000a900473ffffffffffffffffffffffffffffffffffffffff1673ffffffffffffffffffffffffffffffffffffffff163373ffffffffffffffffffffffffffffffffffffffff16146102fb576040517f08c379a00000000000000000000000000000000000000000000000000000000081526004016102f290610d80565b60405180910390fd5b6003805490508110610342576040517f08c379a000000000000000000000000000000000000000000000000000000000815260040161033990610de8565b60405180910390fd5b5f6003828154811061035757610356610e06565b5b905f5260205f2090600302019050806002015f9054906101000a900460ff16156103b6576040517f08c379a00000000000000000000000000000000000000000000000000000000081526004016103ad90610e7d565b60405180910390fd5b80600101544710156103fd576040517f08c379a00000000000000000000000000000000000000000000000000000000081526004016103f490610ee5565b60405180910390fd5b6001816002015f6101000a81548160ff0219169083151502179055505f60015f9054906101000a900473ffffffffffffffffffffffffffffffffffffffff1673ffffffffffffffffffffffffffffffffffffffff16826001015460405161046390610f30565b5f6040518083038185875af1925050503d805f811461049d576040519150601f19603f3d011682016040523d82523d5f602084013e6104a2565b606091505b50509050806104e6576040517f08c379a00000000000000000000000000000000000000000000000000000000081526004016104dd90610f8e565b60405180910390fd5b505050565b60606003805480602002602001604051908101604052809291908181526020015f905b828210156105f1578382905f5260205f2090600302016040518060600160405290815f8201805461053e90610fd9565b80601f016020809104026020016040519081016040528092919081815260200182805461056a90610fd9565b80156105b55780601f1061058c576101008083540402835291602001916105b5565b820191905f5260205f20905b81548152906001019060200180831161059857829003601f168201915b5050505050815260200160018201548152602001600282015f9054906101000a900460ff1615151515815250508152602001906001019061050e565b50505050905090565b5f47905090565b5f5f9054906101000a900473ffffffffffffffffffffffffffffffffffffffff1673ffffffffffffffffffffffffffffffffffffffff163373ffffffffffffffffffffffffffffffffffffffff161461068f576040517f08c379a000000000000000000000000000000000000000000000000000000000815260040161068690610d80565b60405180910390fd5b5f8251116106d2576040517f08c379a00000000000000000000000000000000000000000000000000000000081526004016106c990611053565b60405180910390fd5b5f8111610714576040517f08c379a000000000000000000000000000000000000000000000000000000000815260040161070b906110bb565b60405180910390fd5b600360405180606001604052808481526020018381526020015f1515815250908060018154018082558091505060019003905f5260205f2090600302015f909190919091505f820151815f01908161076c9190611279565b50602082015181600101556040820151816002015f6101000a81548160ff02191690831515021790555050505050565b5f5f9054906101000a900473ffffffffffffffffffffffffffffffffffffffff1681565b5f600380549050905090565b5f341161080e576040517f08c379a000000000000000000000000000000000000000000000000000000000815260040161080590610882565b60405180910390fd5b3460025f82825461081f91906108d6565b92505081905550565b5f82825260208201905092915050565b7f53656e64204554480000000000000000000000000000000000000000000000005f82015250565b5f61086c600883610828565b915061087782610838565b602082019050919050565b5f6020820190508181035f83015261089981610860565b9050919050565b5f819050919050565b7f4e487b71000000000000000000000000000000000000000000000000000000005f52601160045260245ffd5b5f6108e0826108a0565b91506108eb836108a0565b9250828201905080821115610903576109026108a9565b5b92915050565b610912816108a0565b82525050565b5f60208201905061092b5f830184610909565b92915050565b5f73ffffffffffffffffffffffffffffffffffffffff82169050919050565b5f61095a82610931565b9050919050565b61096a81610950565b82525050565b5f6020820190506109835f830184610961565b92915050565b5f604051905090565b5f5ffd5b5f5ffd5b6109a3816108a0565b81146109ad575f5ffd5b50565b5f813590506109be8161099a565b92915050565b5f602082840312156109d9576109d8610992565b5b5f6109e6848285016109b0565b91505092915050565b5f81519050919050565b5f82825260208201905092915050565b5f819050602082019050919050565b5f81519050919050565b5f82825260208201905092915050565b8281835e5f83830152505050565b5f601f19601f8301169050919050565b5f610a5a82610a18565b610a648185610a22565b9350610a74818560208601610a32565b610a7d81610a40565b840191505092915050565b610a91816108a0565b82525050565b5f8115159050919050565b610aab81610a97565b82525050565b5f606083015f8301518482035f860152610acb8282610a50565b9150506020830151610ae06020860182610a88565b506040830151610af36040860182610aa2565b508091505092915050565b5f610b098383610ab1565b905092915050565b5f602082019050919050565b5f610b27826109ef565b610b3181856109f9565b935083602082028501610b4385610a09565b805f5b85811015610b7e5784840389528151610b5f8582610afe565b9450610b6a83610b11565b925060208a01995050600181019050610b46565b50829750879550505050505092915050565b5f6020820190508181035f830152610ba88184610b1d565b905092915050565b5f5ffd5b5f5ffd5b7f4e487b71000000000000000000000000000000000000000000000000000000005f52604160045260245ffd5b610bee82610a40565b810181811067ffffffffffffffff82111715610c0d57610c0c610bb8565b5b80604052505050565b5f610c1f610989565b9050610c2b8282610be5565b919050565b5f67ffffffffffffffff821115610c4a57610c49610bb8565b5b610c5382610a40565b9050602081019050919050565b828183375f83830152505050565b5f610c80610c7b84610c30565b610c16565b905082815260208101848484011115610c9c57610c9b610bb4565b5b610ca7848285610c60565b509392505050565b5f82601f830112610cc357610cc2610bb0565b5b8135610cd3848260208601610c6e565b91505092915050565b5f5f60408385031215610cf257610cf1610992565b5b5f83013567ffffffffffffffff811115610d0f57610d0e610996565b5b610d1b85828601610caf565b9250506020610d2c858286016109b0565b9150509250929050565b7f4f6e6c79206f776e6572000000000000000000000000000000000000000000005f82015250565b5f610d6a600a83610828565b9150610d7582610d36565b602082019050919050565b5f6020820190508181035f830152610d9781610d5e565b9050919050565b7f496e76616c6964206d696c6573746f6e650000000000000000000000000000005f82015250565b5f610dd2601183610828565b9150610ddd82610d9e565b602082019050919050565b5f6020820190508181035f830152610dff81610dc6565b9050919050565b7f4e487b71000000000000000000000000000000000000000000000000000000005f52603260045260245ffd5b7f4d696c6573746f6e6520616c72656164792072656c65617365640000000000005f82015250565b5f610e67601a83610828565b9150610e7282610e33565b602082019050919050565b5f6020820190508181035f830152610e9481610e5b565b9050919050565b7f496e73756666696369656e7420636f6e74726163742062616c616e63650000005f82015250565b5f610ecf601d83610828565b9150610eda82610e9b565b602082019050919050565b5f6020820190508181035f830152610efc81610ec3565b9050919050565b5f81905092915050565b50565b5f610f1b5f83610f03565b9150610f2682610f0d565b5f82019050919050565b5f610f3a82610f10565b9150819050919050565b7f5472616e73666572206661696c656400000000000000000000000000000000005f82015250565b5f610f78600f83610828565b9150610f8382610f44565b602082019050919050565b5f6020820190508181035f830152610fa581610f6c565b9050919050565b7f4e487b71000000000000000000000000000000000000000000000000000000005f52602260045260245ffd5b5f6002820490506001821680610ff057607f821691505b60208210810361100357611002610fac565b5b50919050565b7f5469746c652072657175697265640000000000000000000000000000000000005f82015250565b5f61103d600e83610828565b915061104882611009565b602082019050919050565b5f6020820190508181035f83015261106a81611031565b9050919050565b7f416d6f756e74206d7573742062652067726561746572207468616e207a65726f5f82015250565b5f6110a5602083610828565b91506110b082611071565b602082019050919050565b5f6020820190508181035f8301526110d281611099565b9050919050565b5f819050815f5260205f209050919050565b5f6020601f8301049050919050565b5f82821b905092915050565b5f600883026111357fffffffffffffffffffffffffffffffffffffffffffffffffffffffffffffffff826110fa565b61113f86836110fa565b95508019841693508086168417925050509392505050565b5f819050919050565b5f61117a611175611170846108a0565b611157565b6108a0565b9050919050565b5f819050919050565b61119383611160565b6111a761119f82611181565b848454611106565b825550505050565b5f5f905090565b6111be6111af565b6111c981848461118a565b505050565b5b818110156111ec576111e15f826111b6565b6001810190506111cf565b5050565b601f82111561123157611202816110d9565b61120b846110eb565b8101602085101561121a578190505b61122e611226856110eb565b8301826111ce565b50505b505050565b5f82821c905092915050565b5f6112515f1984600802611236565b1980831691505092915050565b5f6112698383611242565b9150826002028217905092915050565b61128282610a18565b67ffffffffffffffff81111561129b5761129a610bb8565b5b6112a58254610fd9565b6112b08282856111f0565b5f60209050601f8311600181146112e1575f84156112cf578287015190505b6112d9858261125e565b865550611340565b601f1984166112ef866110d9565b5f5b82811015611316578489015182556001820191506020850194506020810190506112f1565b86831015611333578489015161132f601f891682611242565b8355505b6001600288020188555050505b50505050505056fea26469706673582212204c7300fa2699a6ed7639dc959c8c1f8ff2d0431722e38a9e1a9b7e7b2c5267cd64736f6c634300081c0033",
  "linkReferences": {},
  "deployedLinkReferences": {},
  "immutableReferences": {},
  "inputSourceName": "project/contracts/ResearchProjectEscrow.sol",
  "buildInfoId": "solc-0_8_28-b267c7360f5f911705048290f3533350db09021c"
}